:020000040800F2
:10000000B005002045010008A10F0008A30F00085B
:10001000A70F0008AB0F0008AF0F0008000000009A
:10002000000000000000000000000000B30F000806
:10003000B50F000800000000B70F0008B90F000856
:100040005F0100085F0100085F0100085F01000810
:100050005F0100085F0100085F0100085F01000800
:100060005F0100085F0100085F0100085F010008F0
:100070005F0100085F0100085F0100085F010008E0
:100080005F0100085F0100085F0100085F010008D0
:100090005F0100085F0100085F0100085F010008C0
:1000A0005F0100085F0100085F0100085F010008B0
:1000B0005F0100085F0100085F0100085F010008A0
:1000C0005F0100085F0100085F0100085F01000890
:1000D0005F0100085F0100083F1F00085F01000882
:1000E0005F0100085F0100085F0100085F01000870
:1000F0005F0100085F0100085F0100085F01000860
:100100005F0100085F0100085F0100085F0100084F
:100110005F0100085F0100085F0100085F0100083F
:100120005F0100085F0100085F0100085F0100082F
:10013000DFF80CD002F08EFB004800472D0F0008BE
:10014000B00500200648804706480047FEE7FEE766
:10015000FEE7FEE7FEE7FEE7FEE7FEE7FEE7FEE777
:1001600047020008310100080CB500200190009002
:100170006C48006840F480306A49086000BF6948F4
:10018000006800F4003000900198401C0190009835
:1001900018B90198B0F5A06FF1D16248006800F479
:1001A000003010B10120009001E000200090009884
:1001B000012843D15C48006840F010005A490860AB
:1001C0000846006820F0030008600846006840F018
:1001D0000200086053484068524948600846406839
:1001E00048600846406840F48060486008464068BF
:1001F00020F47C1048600846406840F4E8104860ED
:100200000846006840F08070086000BF45480068FC
:1002100000F000700028F9D04248406820F0030048
:10022000404948600846406840F00200486000BF0E
:100230003C48406800F00C000828F9D10CBD10B50E
:10024000FFF792FF10BD10B53648006840F001007E
:1002500034490860084640683449084031494860DC
:1002600008460068324908402E4908600846006880
:1002700020F4802008600846406820F4FE004860B2
:100280004FF41F008860FFF7DAFF4FF00060294944
:10029000086010BD10B5002100200022214B5B68D2
:1002A00003F00C0121B1042906D0082928D107E068
:1002B000214B224C236027E01F4B204C236023E07E
:1002C000184B5B6803F47010164B5B6803F48032C4
:1002D000022303EB904022B9194B4343174C236090
:1002E0000DE0104B5B6803F4003323B1144B434320
:1002F000124C236003E0104B4343104C236003E097
:100300000D4B0E4C236000BF00BF064B5B68C3F370
:1003100003130C4CE15C094B1B68CB40074C23607A
:1003200010BD000000100240002002400000FFF855
:10033000FFFFF6FE08ED00E000127A00000000204A
:1003400000093D000400002031490143314A116099
:10035000704770B5002100230F22C47804B32D4CE0
:10036000246804F4E064C4F5E064210AC1F10403E4
:10037000CA40447804FA03F1847814402143090107
:10038000254C0678A155047804F01F050124AC40E3
:1003900005786D11AD0005F1E025C5F8004109E0D3
:1003A000047804F01F050124AC401C4D067876113A
:1003B00045F8264070BD1A4A0A400243154B1B1FE0
:1003C0001A60704739B1134A121D12680243114B6B
:1003D0001B1D1A6006E00F4A121D126882430D4B66
:1003E0001B1D1A607047042808D14FF0E0210969ED
:1003F00041F004014FF0E022116107E04FF0E021ED
:10040000096921F004014FF0E022116170470000FA
:100410000000FA050CED00E000E400E080E100E0FF
:1004200080FFFF1F10B50446CC48844208D101214B
:10043000042000F02DFB0021042000F029FB46E001
:10044000C748844208D10121082000F021FB002187
:10045000082000F01DFB3AE0C248844208D1012187
:10046000102000F015FB0021102000F011FB2EE001
:10047000BD48844208D10121202000F009FB002161
:10048000202000F005FB22E0B848844208D1012179
:10049000402000F0FDFA0021402000F0F9FA16E0BB
:1004A000B348844208D10121802000F0F1FA0021F4
:1004B000802000F0EDFA0AE0AE48844207D1012125
:1004C000801500F0E5FA0021A01500F0E1FA10BD5A
:1004D00010B50121084600F0DBFA0021012000F0F0
:1004E000D7FA10BD2DE9F041024600250026002074
:1004F00000230024002791F803C00CF00F0591F8A9
:1005000003C00CF0100CBCF1000F03D091F802C036
:100510004CEA050591F800C0BCF1000F31D0146819
:1005200000202BE04FF0010C0CFA00F3B1F800C0F2
:100530000CEA03069E4220D183004FF00F0C0CFA08
:1005400003F7BC4305FA03FC4CEA040491F803C02A
:10055000BCF1280F06D14FF0010C0CFA00FCC2F8D8
:1005600014C00AE091F803C0BCF1480F05D14FF068
:10057000010C0CFA00FCC2F810C0401C0828D1D3B2
:100580001460B1F800C0BCF1FF0F34DD54680020E6
:100590002EE000F1080C4FF0010808FA0CF3B1F856
:1005A00000C00CEA03069E4221D183004FF00F0CDD
:1005B0000CFA03F7BC4305FA03FC4CEA040491F877
:1005C00003C0BCF1280F05D100F1080C08FA0CF8A3
:1005D000C2F8148091F803C0BCF1480F07D100F1B4
:1005E000080C4FF0010808FA0CF8C2F81080401C03
:1005F0000828CED35460BDE8F0814FF6FF7101802A
:10060000022181700421C170704702460020936866
:100610000B400BB1012000E00020704701468868C4
:1006200080B2704702460020D3680B400BB1012016
:1006300000E0002070470146C86880B27047016141
:100640007047416170470AB1016100E04161704744
:10065000C16070474FF480320A43826181618261D8
:1006600082698269704702460020434B18684FF642
:100670008073184040EA021008433F4B18607047EF
:100680003E49C8617047F0B50A46002300240021A6
:10069000002500F00046B6F1004F02D1364EF16958
:1006A00001E0354E7168C0F3034583B200F4401693
:1006B000B6F5401F08D121F070612F4E766826F004
:1006C00070662D4F7E6012E000F48016B6F5801F34
:1006D00006D1032606FA05F4A14341F0706106E055
:1006E000460D360103FA06F6B14341F0706122B1BE
:1006F000460D360103FA06F6314300F00046B6F126
:10070000004F02D11C4EF16101E01B4E7160F0BD43
:1007100030B500228B071C0F0F2303FA04F2164B8F
:1007200008338C1053F824309343134C08348D1045
:1007300044F8253023468C1053F824308C07240FBE
:1007400000FA04F423430C4C08348D1044F825308F
:1007500030BD0A49DC3108607047000000080140E4
:10076000000C01400010014000140140001801403D
:10077000001C014000200140000001400000204218
:10078000DF48006840F00100DD4908600846406825
:10079000DC490840DA49486008460068DA49084000
:1007A000D74908600846006820F4802008600846A1
:1007B000406820F4FE0048604FF41F0088607047D6
:1007C000CF49096821F48031CD4A1160114609688A
:1007D00021F480211160B0F5803F03D0B0F5802F67
:1007E0000ED106E0C649096841F48031C44A11605F
:1007F00007E0C349096841F4A021C14A116000E043
:1008000000BF00BF704710B5014600220023002042
:100810004A11012A02D1BA4C236806E0022A02D109
:10082000B74C236A01E0B64C636A01F01F02012451
:1008300094401C400CB1012000E0002010BD38B5F0
:10084000002000900024002500BF3120FFF7DBFFCF
:1008500005460098401C00900098B0F5A06F01D0AC
:10086000002DF2D03120FFF7CEFF08B1012400E0C7
:100870000024204638BD01460020A14A106820F01F
:10088000F80040EAC10010607047A0490860704756
:10089000024600209A4B586820F47C1042EA01037B
:1008A0001843974B5860704798490866704701464F
:1008B0000020934A506820F00300084350607047BE
:1008C0008F48406800F00C007047014600208C4AB9
:1008D000506820F0F0000843506070470146002047
:1008E000874A506820F4E060084350607047014632
:1008F0000020834A506820F4605040EAC1005060F4
:10090000704729B17E4A527A02437D4B5A7204E005
:100910007B4A527A82437A4B5A7270477B49D8316C
:100920000860704701460020754A506820F4404036
:100930000843506070470021714A20321170704A9C
:1009400082F82010012802D004280AD104E00121F5
:100950006B4A2032117005E00521694A203211707E
:1009600000E000BF00BF70476949086070476449F4
:10097000096A0143624A1162704765494439086057
:10098000704730B500210022002400235C4D6D68C3
:1009900005F00C0121B1042905D0082923D105E077
:1009A0005C4D056022E05B4D05601FE0544D6D68B5
:1009B00005F47012524D6D6805F48034022505EB84
:1009C00092421CB9544D554305600BE04C4D6D6887
:1009D00005F400351DB1504D5543056002E04D4D05
:1009E0005543056002E04B4D056000BF00BF444D1C
:1009F0006D6805F0F0010909484D6B5C0568DD4044
:100A000045603F4D6D6805F4E061090A434D6B5C3C
:100A10004568DD4085603A4D6D6805F46051C90A4E
:100A20003E4D6B5C4568DD40C560354D6D6805F435
:100A30004041890B3A4D6B5CC568B5FBF3F5056128
:100A400030BD29B12E4A526902432D4B5A6104E050
:100A50002B4A526982432A4B5A61704729B1284A6E
:100A600092690243264B9A6104E0254A92698243C7
:100A7000234B9A61704729B1214AD2690243204B26
:100A8000DA6104E01E4AD26982431D4BDA61704785
:100A900029B11B4AD2680243194BDA6004E0184AB4
:100AA000D2688243164BDA60704729B1144A126942
:100AB0000243134B1A6104E0114A12698243104B3E
:100AC0001A61704712494039086070470F49C8647D
:100AD00070470B49C87170470948406A40F0807000
:100AE00007494862704701460020054A92680A405B
:100AF0000AB1012000E00020704701498872704768
:100B0000001002400000FFF8FFFFF6FE0000424226
:100B10008004424200127A0000093D0014000020C7
:100B20002400002010B50446FB48844209D101216D
:100B30008803FFF7ADFF00214FF48040FFF7A8FFC7
:100B400032E0F648844209D101214804FFF7ADFFA5
:100B500000214FF40030FFF7A8FF25E0F048844261
:100B600009D101218804FFF7A0FF00214FF4802064
:100B7000FFF79BFF18E0EB48844209D10121C8042C
:100B8000FFF793FF00214FF40020FFF78EFF0BE0EB
:100B9000E548844208D101210805FFF786FF0021BE
:100BA0004FF48010FFF781FF10BD2DE9F04786B0AC
:100BB00005460E460024A24600BFA1460027B08984
:100BC00000B100BF2F462C8A4CF6FF700440F0881D
:100BD00004432C82AC894EF6F3100440B08831896E
:100BE0000843718908430443AC81AC8A4FF6FF4047
:100BF0000440B0890443AC8201A8FFF7C2FEC64896
:100C0000874202D1DDF810A001E0DDF80CA0A88930
:100C100000F4004040B10AEBCA0000EB0A10316852
:100C20004900B0FBF1F807E00AEBCA0000EB0A103C
:100C300031688900B0FBF1F86420B8FBF0F00401E2
:100C40002009642101FB1089A88900F4004040B10B
:100C5000322000EBC900B0FBF1F000F007000443C4
:100C600008E0322000EB09106421B0FBF1F000F045
:100C70000F0004432C8106B0BDE8F0874FF41651F5
:100C8000016000218180C18001810C21418100210E
:100C90008181704710B502460020108A4FF2FF0391
:100CA00018400B884C8823438C882343CC882343EB
:100CB0001843108210BD0021018041808180C180D5
:100CC000704721B1828942F40052828104E0828916
:100CD0004DF6FF731A4082817047F0B50346002439
:100CE00000260025002040F66A17B94200D100BF57
:100CF0001846C1F3421401F01F06012707FA06F552
:100D0000012C01D10C3004E0022C01D1103000E0A4
:100D100014301AB107682F43076002E00768AF4339
:100D20000760F0BD1AB1838A0B43838202E0838A95
:100D30008B4383827047028A4FF6F0731A40028217
:100D4000028A0A430282704782894FF2FF731A4077
:100D5000828182890A438281704721B1828942F06F
:100D60000202828104E082894FF6FD731A4082817B
:100D70007047028A4FF6DF731A400282028A0A43E2
:100D80000282704721B1028A42F48042028204E06A
:100D9000028A4BF6FF731A4002827047C1F30802C1
:100DA0008280704701468888C0F3080070478189B7
:100DB00041F0010181817047028BD2B20283028B24
:100DC00042EA012202837047028B02F47F420283CF
:100DD000028B0A430283704721B1828A42F02002CB
:100DE000828204E0828A4FF6DF731A408282704763
:100DF00021B1828A42F01002828204E0828A4FF698
:100E0000EF731A408282704721B1828A42F0080251
:100E1000828204E0828A4FF6F7731A40828270471A
:100E200021B1828942F40042828103E08289C2F3C7
:100E30000E028281704721B1828A42F4006282826E
:100E400004E0828A4FF2FF731A4082827047828ADE
:100E50004FF6FB731A408282828A0A43828270476D
:100E600021B1828A42F00202828204E0828A4FF635
:100E7000FD731A408282704702460020B1F5007F60
:100E800000D100BF13880B400BB1012000E000200F
:100E9000704701F40072B2F5007F00D100BFCA4371
:100EA0000280704770B50246002400230025002010
:100EB00040F66A16B14200D100BFC1F3421501F0FD
:100EC0001F03012606FA03F3012D02D19689334050
:100ED00006E0022D02D1168A334001E0968A3340A3
:100EE0000C12012606FA04F41688344013B10CB132
:100EF000012000E0002070BD10B50022002340F664
:100F00006A14A14200D100BF0A1201249440A3B286
:100F1000DC43048010BD0000003801400044004064
:100F200000480040004C00400050004000F048F8ED
:100F300000F07AFE4FF4165000F0B2FF00F056F9C0
:100F400000F0C2FA00F0BDF900F019FD4FF47A701C
:100F500000F06BF80CA001F08FFC13E000F05AFADF
:100F60004CF2503000F061F800F091FD4CF250303E
:100F700000F05BF800F0CDFE00F03AFF4CF250308C
:100F800000F053F8EAE70000496E6974696174651E
:100F90006420636F6D706C657465640D0A000000F9
:100FA000704700BFFEE700BFFEE700BFFEE700BFDF
:100FB000FEE770477047704710B500F048F810BD65
:100FC00030B527480068274AB0FBF2F1B1F1807FC5
:100FD00001D301201DE021F07F40401E4FF0E022B0
:100FE000506150170F22002807DA13071D0E1E4B01
:100FF00000F00F04241F1D5503E013071C0E1B4BAC
:101000001C5400BF00204FF0E022906107201061C7
:10101000002008B100BFFEE74FF0E020006920F09B
:1010200001004FF0E021086130BD01B51049009882
:1010300008604FF0E020006940F001004FF0E0212F
:10104000086100BF0A4800680028FBD108BD0848B5
:10105000006820B106480068401E054908607047D6
:1010600000000020A086010018ED00E000E400E090
:1010700028000020002001E0411CC8B20A28FBDB48
:10108000704710B580206C49086040200860FFF769
:10109000F1FF80206849091D0860FFF7EBFF402041
:1010A0006549091D0860FFF7E5FF10BD10B58020F8
:1010B0006149091D08604020091F0860FFF7DAFF39
:1010C00080205D49086010BD70B50446002520E011
:1010D00004F0800018B180205749086003E08020A8
:1010E0005549091D0860FFF7C5FF402052490860B7
:1010F000FFF7C0FF40205049091D0860072D02D1AD
:101100008020091F08606006040EFFF7B3FF681C0B
:10111000C5B2082DDCDB70BD10B580204649091D25
:101120000860FFF7A7FF402043490860FFF7A2FFD0
:1011300040204149091D0860FFF79CFF80203E497F
:10114000086010BD10B580203B490860FFF792FF92
:10115000402039490860FFF78DFF40203649091DBE
:101160000860FFF787FF10BD70B505460024002614
:1011700016E06006040E40202F490860FFF77AFF52
:101180002D480838006800F0800008B1601CC4B227
:1011900040202949091D0860FFF76CFF701CC6B28A
:1011A000082EE6DB15B9FFF7CDFF01E0FFF7B4FF2E
:1011B000204670BD10B580201F490860FFF75AFF18
:1011C00040201D490860FFF755FF1B48083800689C
:1011D00000F0800008B1012400E0002440201649FE
:1011E000091D0860FFF746FF204610BD08B5012124
:1011F0000820FFF733FCC020ADF8000003208DF875
:10120000020014208DF8030069460B481038FFF7E0
:1012100069F9FFF74BFF08BD70B50446FFF7E6FF1D
:10122000FFF72FFF2046FFF74FFFFFF7C3FF0546ED
:10123000FFF73CFF284670BD100C014070B5054615
:101240000C46FFF71EFFD020FFF73EFFFFF7B2FF6F
:101250002846FFF739FFFFF7ADFF2046FFF734FFC1
:10126000FFF7A8FFFFF722FF70BD2DE9F041074609
:101270000C461546FFF705FFD020FFF725FFFFF7C7
:1012800099FF3846FFF720FFFFF794FFFFF7F9FEBD
:10129000D120FFF719FFFFF78DFF002606E00120A0
:1012A000FFF762FF2070641C701CC6B2681EB0425B
:1012B000F5DC0020FFF758FF2070FFF7F7FEBDE8D0
:1012C000F08170B50024002500BF06E0002500E095
:1012D0006D1CB5F57A7FFBDB641CB4F57A7FF5DB1A
:1012E00000216B20FFF7AAFF07211920FFF7A6FFB7
:1012F00006211A20FFF7A2FF00211C20FFF79EFF06
:1013000018211B20FFF79AFF70BD08B50020009040
:10131000012269467520FFF7A8FF9DF8001053A031
:1013200001F0AAFA08BD1CB50446062269463B2016
:10133000FFF79BFF9DF801009DF8001040EA012097
:1013400000B220809DF803009DF8021040EA0120C1
:1013500000B260809DF805009DF8041040EA01206D
:1013600000B2A0801CBD1CB504460622694643207D
:10137000FFF77BFF9DF801009DF8001040EA012077
:1013800000B220809DF803009DF8021040EA012081
:1013900000B260809DF805009DF8041040EA01202D
:1013A00000B2A0801CBD38B5044602226946412027
:1013B000FFF75BFF9DF801009DF8001040EA012057
:1013C00000B2208038BD2DE9F84F824602226946DE
:1013D0004120FFF74AFF9DF801009DF8001040EA08
:1013E00001200FFA80FB43F29030584401F041F89D
:1013F000804600221F4B00F0C4FF064600221E4B11
:1014000000F0B9FF044601F045F800B2AAF8000068
:10141000BDE8F88F10B51948FFF785FF1748B0F9F8
:101420000430B0F90220B0F9001015A001F024FA40
:101430001A48FFF798FF1948B0F90430B0F90220B4
:10144000B0F9001016A001F017FA1B48FFF7BBFF18
:101450001948B0F9001005A001F00EFA1648B0F9CD
:10146000001016A001F008FA10BD000025640D0A56
:10147000000000000080714000002A402C00002085
:101480000D0ABCD3CBD9B6C8A3BA202538642538F9
:101490006425386420202020000000003200002055
:1014A000CDD3C2DDD2C7A3BA202538642538642540
:1014B000386420202020000038000020CEC2B6C8AA
:1014C000A3BA2025640D0A0008B501210820FFF702
:1014D000C5FA4FF44060ADF8000001208DF802001D
:1014E00014208DF803006946FE48FEF7FBFF4020FC
:1014F000FC49103108608020086008BD142101FB00
:1015000000F2D0B200BF021EA0F10103D8B2FAD19E
:10151000704710B58020F349103108600520FFF7AF
:10152000EDFF4020EF49103108600520FFF7E6FF8E
:101530008021EC48FFF769F808B9002010BD802031
:10154000E849143108600520FFF7D8FF8021E548FD
:10155000FFF75BF808B10020F0E74020E1491431C3
:1015600008600520FFF7CAFF0120E7E700B58020EB
:10157000DC4914310860402008600520FFF7BEFFF9
:101580004020D849103108600520FFF7B7FF8020C0
:10159000D4491031086000BD10B50446012C04D1B7
:1015A0008020D0491031086003E08020CD491431FB
:1015B00008604020CB49103108600520FFF79EFFEE
:1015C0004020C849143108600520FFF797FF10BD7F
:1015D00010B500248020C349103108604020086005
:1015E00005E0601C84B2B4F5FA7F00D105E08021EB
:1015F000BC48FFF70AF80028F3D100BF8021B948A2
:10160000FFF703F828B14020B649143108600020E4
:1016100010BD0520FFF772FF4020B2491431086069
:101620000520FFF76BFF0120F2E730B504464020AC
:10163000AC491431086000251DE004F0800020B1A1
:101640008020A8491031086003E08020A5491431AA
:1016500008604020A349103108600520FFF74EFFC5
:101660004020A049143108600520FFF747FF6006BD
:10167000040E681CC5B2082DDFDB30BD70B5002438
:1016800080209849103108600120FFF737FF0025BE
:1016900018E06006040E4020924910310860802155
:1016A0009048FEF7B2FF08B144F001040520FFF7AF
:1016B00025FF40208B49143108600520FFF71EFFED
:1016C000681CC5B2082DE4DB204670BD70B5064627
:1016D0000C461546FFF71DFF18B9FFF747FF00201E
:1016E00070BD3046FFF7A1FFFFF772FF18B9FFF793
:1016F0003DFF0020F4E72046FFF797FFFFF768FF64
:1017000018B9FFF733FF0020EAE72846FFF78DFFFF
:10171000FFF75EFF18B9FFF729FF0020E0E7FFF7AA
:1017200025FF0120DCE72DE9F04107460E4614466F
:101730001D46FFF7EEFE20B9FFF718FF0020BDE8B9
:10174000F0813846FFF771FFFFF742FF18B9FFF746
:101750000DFF0020F3E73046FFF767FFFFF738FF84
:1017600018B9FFF703FF0020E9E70CE014F8010BBC
:10177000FFF75BFFFFF72CFF18B9FFF7F7FE00201C
:10178000DDE7681EC5B2002DF0D1FFF7EFFE0120A6
:10179000D5E72DE9F04106460F4614461D46FFF7F2
:1017A000B8FE20B9FFF7E2FE0020BDE8F081304628
:1017B000FFF73BFFFFF70CFF18B9FFF7D7FE00203C
:1017C000F3E73846FFF731FFFFF702FF18B9FFF7DD
:1017D000CDFE0020E9E7FFF79CFE18B9FFF7C6FE33
:1017E0000020E2E7711CC8B2FFF71FFFFFF7F0FE11
:1017F00018B9FFF7BBFE0020D7E708E0FFF73EFF70
:1018000004F8010B0020FFF7C7FE681EC5B2681E72
:101810000028F3D1FFF732FF20700120FFF7BCFE54
:10182000FFF7A4FE0120C0E72DE9F04106460F4670
:1018300014461D46FFF76DFE20B9FFF797FE002006
:10184000BDE8F0813046FFF7F0FEFFF7C1FE18B9A2
:10185000FFF78CFE0020F3E73846FFF7E6FEFFF7C0
:10186000B7FE18B9FFF782FE0020E9E7FFF751FE47
:1018700018B9FFF77BFE0020E2E7711CC8B2FFF742
:10188000D4FEFFF7A5FE18B9FFF770FE0020D7E7DA
:1018900008E0FFF7F3FE04F8010B0020FFF77CFEE1
:1018A000681EC5B2681E0028F3D1FFF7E7FE20705E
:1018B0000120FFF771FEFFF759FE0120C0E72DE977
:1018C000F04706460F4614461D464FF002094FF0FA
:1018D0006408FFF71EFE38B9FFF748FE0020BDE898
:1018E000F0870000000C01403046FFF79EFEFFF736
:1018F0006FFE18B9FFF73AFE0020F0E73846FFF711
:1019000094FEFFF765FE18B9FFF730FE0020E6E70A
:1019100000BFB8F10000A8F1010101F0FF08F8D103
:10192000FFF724FE40F21450FFF77FFBFFF7F1FDB5
:1019300018B9FFF71BFE0020D1E7711CC8B2FFF7F2
:1019400074FEFFF745FE18B9FFF710FE0020C6E74A
:1019500008E0FFF793FE04F8010B0020FFF71CFEE0
:10196000681EC5B2681E0028F3D1FFF787FE2070FD
:101970000120FFF711FEFFF7F9FD0120AFE71FB5CA
:1019800081A00068019064240123804A2021B420B2
:10199000FFF7FFFE02237D4A521C2321B420FFF7EC
:1019A000F8FE0223794AD21C2421B420FFF7F1FE6D
:1019B000F022F321B420FFF789FE0123744A0021AD
:1019C000B420FFF7E6FE7248007800F0100028B15E
:1019D0000023704AF421B420FFF7A5FE01236C4ACE
:1019E0000021B420FFF7D5FE01236B4A1946B4202D
:1019F000FFF7CFFE10220121B420FFF767FE02237C
:101A000001AA19468020FFF78EFE00BF201EA4F118
:101A10000101CCB2FAD102236A4619468020FFF7B1
:101A2000B8FE9DF801209DF800105CA000F024FF96
:101A30002AE0022303AAFF218020FFF7AAFE022347
:101A400002AAFE218020FFF7A4FE9DF809209DF840
:101A500008105AA000F010FF9DF80D209DF80C1002
:101A60005DA000F009FF9DF80C0010280CD19DF836
:101A70000D00502808D19DF80800542804D19DF885
:101A80000900492800D100E0D3E700BF1FBD2DE9C0
:101A9000F04F87B04FF0000901233D4A0021B420E8
:101AA000FFF777FE0123514AE021B420FFF771FED2
:101AB00008234F4A0221B420FFF76BFE0123334A6B
:101AC0002021B420FFF765FE49484178007801EBFA
:101AD000002080B2ADF808004548C178807801EB5D
:101AE000002080B2ADF80A00BDF80A20BDF8081049
:101AF00040A000F0C1FE022306AA00218020FFF7CB
:101B000093FE042305AA00218020FFF7D8FE9DF84C
:101B100015209DF8141002EB012000F0A1FC824674
:101B20009DF817209DF8161002EB012000F098FC9C
:101B300083464FF08F41504600F03EFB0646324947
:101B400000F008FB0546314900F0FEFA04464FF06C
:101B50008F41584600F030FB0490049800F0B9FC27
:101B600005460E46204600F0B4FC07463A460B46B2
:101B700027A0CDE9005600F07FFE00200349087041
:101B800007B0BDE8F08F00001000000058000020F2
:101B90003E0000203C0000203D000020484443312E
:101BA00030383020636F6E66696720726561643D0E
:101BB0003078257825780D0A000000004D616E759B
:101BC00066616374757265722049443D307825788A
:101BD00025780D0A00000000446576696365204998
:101BE000443D3078257825780D0A00003F0000201C
:101BF0004C00002065636F323D2564202074766FB1
:101C0000633D25640D0A00000000254300003442B6
:101C100054656D2648756D69646974793D25662043
:101C2000202025660D0A000000B585B0012144F290
:101C30000400FEF713FF4FF40070ADF810001820F9
:101C40008DF8130003208DF8120004A92B48FEF72D
:101C500049FC4FF48060ADF8100004208DF81300AB
:101C600004A92648FEF73EFC4FF4E1300090002026
:101C7000ADF80400ADF80600ADF80800ADF80C00B2
:101C80000C20ADF80A0069461D48FEF78EFF0121C1
:101C90001B48FFF716F805B000BD08B54FF4E0602B
:101CA000FEF752FB25208DF8000000208DF8010082
:101CB00001208DF802008DF803006846FEF749FB0D
:101CC00008BD70B504460D46E1B20D48FFF766F851
:101CD00000BF40210A48FFF7CFF80028F9D020467E
:101CE00070BD10B5044600BF20210548FFF7C4F8B9
:101CF0000028F9D00248FFF755F810BD0008014050
:101D000000380140044603E0214652A000F0B4FD33
:101D1000FAE7F8B50026524890F85000002866D03F
:101D200000204F4981F8500000BF5EE046B94DA148
:101D30004B4800F0A5F9041E55D10120FFF7E2FF42
:101D4000641C48A1204600F09BF9051E48D0072ED0
:101D50002ED2DFE806F02D040B11181F26002A1BD7
:101D600021463F48523000F067F922E02A1B214605
:101D7000684600F061F91CE02A1B214638485D30B6
:101D800000F05AF915E02A1B21463548683000F06A
:101D900053F90EE02A1B214631486A3000F04CF915
:101DA00007E02A1B21462E48763000F045F900E076
:101DB00000BF00BF2C460120294981F851009DF841
:101DC0000000412803D1012081F87F0007E09DF841
:101DD0000000562803D10020214981F87F0002E04D
:101DE0000220FFF78FFF701CC6B2062E9EDDF8BDE5
:101DF00010B51B4890F8510000282AD0002018493F
:101E000081F85100084690F87F00F8B1002081F871
:101E10007F0001F15D0000F02FFD12A000F02CFD0D
:101E20000F48683000F028FD0EA000F025FD0C489A
:101E30006A3000F021FD0BA000F01EFD084876304E
:101E400000F01AFD08A000F017FD02E007A000F066
:101E500013FD10BD4552524F5225640D0A0000007B
:101E6000620000202C0000002C0D0A004750532077
:101E700044415441206973206E6F74207573656608
:101E8000756C6C210D0A0000014600BF704710B54B
:101E9000C821644800F0E9F800206349088010BDBB
:101EA00010B586B0044601210420FEF7D7FD0121BC
:101EB0004804FEF7E0FD0420ADF8140003208DF87F
:101EC000160018208DF8170005A95848FEF70AFBE0
:101ED0000820ADF8140004208DF8170005A9534818
:101EE000FEF700FB26208DF8000003208DF801008E
:101EF0008DF8020001208DF803006846FEF729FAEC
:101F000001940020ADF80800ADF80A00ADF80C000F
:101F1000ADF810000C20ADF80E0001A94448FEF702
:101F200044FE012240F225514148FEF7D6FE012130
:101F30003F48FEF7C6FEFFF7AAFF06B010BD10B57A
:101F400040F225513A48FEF7ADFF002839D0384815
:101F5000FEF728FFC4B2242C02D1002032490880A9
:101F6000314801880088401C2F4A10802D48445475
:101F7000007824281ED12B4800794D281AD12948F1
:101F80004079432816D10A2C14D15021294800F059
:101F90006CF8254802882349264800F04DF80120B6
:101FA000244981F8500000201F490880C8211D489D
:101FB00000F05BF81C480088C82802DBC8201A49DA
:101FC000088010BD10B504462146164800F058F8A8
:101FD00008B1012010BD0020FCE710B50020154914
:101FE00081F8500081F8510081F87F00502111489C
:101FF00000F03BF80F485230002101604160018140
:1020000081720B3001604160018181725D38A0F8FE
:1020100068106A300160416081606A38A0F876100B
:1020200010BD0000E2000020420000200008014036
:10203000004400406200002040EA01039B0703D0F7
:1020400009E008C9121F08C0042AFAD203E011F8F7
:10205000013B00F8013B521EF9D27047D2B201E0B9
:1020600000F8012B491EFBD270470022F6E710B59D
:1020700013460A4604461946FFF7F0FF204610BDF6
:1020800030B505462A460B4612F8010B13F8014BF2
:1020900008B1A042F8D01CB1002802D06D1CF1E7B5
:1020A000284630BDF0B480EA0102D40F4200B2EB02
:1020B000410F02D20246084611464A0042D0C30DE3
:1020C000DDB2C1F3C752AD1A202D35DAC1F31601C6
:1020D00041F4000204B15242C5F1200602FA06F1B1
:1020E0002A411044B3EBD05F23D0C4B1012DA0EB43
:1020F000C35009DCF0BC4FF0004202EAC352DBB22D
:1021000000F5000000F079BA400000F1807000EBAB
:10211000C350A0F1807040EAD170490009E049083D
:1021200041EAC071A0EBC35000F50000400800EB8D
:10213000C350F0BC00F058BA6142012202EB4101E9
:10214000001BF6E7F0BC704781F00041AAE780F081
:102150000040A7E780EA010210B502F0004340000A
:1021600022D04A001FD0010E01EB1261C0F35600CD
:10217000C2F3560240F4000042F40002A0FB022029
:1021800000047F39140400D0401C50EA124001D4EE
:102190004000491EC2B20C0604EBD010401C40089F
:1021A000802A02D003E0002010BD20F001000029A9
:1021B00000DA0020184310BD30B480EA010202F0BA
:1021C000004530F0004221F0004013D090B1C30D23
:1021D000D40DC2F31601C0F31600E41A41F4000155
:1021E00040F400027D34914201D3641C00E04900B8
:1021F000002C02DA30BC002070474FF400000023AE
:10220000914201D3891A034340084FEA4101F7D1B3
:1022100051B1914202D14FF0004105E002D24FF09E
:10222000010101E06FF0010103EBC450284430BC10
:1022300000F0DAB92DE9FE4F804681EA0300C00FB5
:102240000C46009021F0004123F00045B8EB02005D
:10225000A94105D24046214690461C460B460246FF
:1022600023F00040104347D0270DC7F30A00C3F303
:102270000A510290401A019040286BDAC3F3130010
:1022800040F4801B0098924620B10023D2EB030A51
:1022900063EB0B0B01985946C0F14002504600F029
:1022A00072F906460D4650465946019A00F08AF9E1
:1022B00010EB08006141002487EA115284EAE773B9
:1022C0001A4340D0009A62B3019A012A4FEA07529A
:1022D00015DC001B61EB02014FF0004202EA0752DD
:1022E000CDE90042001C41F5801132462B4600F03A
:1022F000C1F903B0BDE8F08F40462146F9E7001B65
:1023000061EB0201001C41F5801300185B412018AD
:10231000A2F5001747EB030140EAD570B6196D41ED
:1023200011E06D084FEA360645EAC0754FEA0752DC
:10233000001B61EB0201001C41F5801149084FEAC6
:1023400030000019514132462B4603B0BDE8F04F32
:1023500000F081B90098012240000023D0EB020276
:1023600063EBE073009821464FEAE074B8EB00009D
:1023700061EB0401E9E783F000435BE781F0004192
:1023800058E72DE9F04D81EA030404F0004B21F0F9
:10239000004514464FF0000A23F0004150EA0502C0
:1023A00020D054EA01021DD0C5F30A570246C5F3F6
:1023B0001303C1F31300C1F30A5640F4801543F42C
:1023C0008013A7EB0608101BD64608F2FD3873EB06
:1023D000050002D308F1010801E092185B41B8F151
:1023E000000F03DA00200146BDE8F08D00204FF415
:1023F0008011064684460EE0171B73EB050705D3D4
:10240000121B63EB050306434CEA010C49084FEA33
:10241000300092185B4150EA0107EDD152EA030007
:1024200012D082EA040083EA0501084305D0101B9C
:10243000AB4106D20122002306E000224FF0004308
:1024400002E06FF0010253101AEB06004CEB08514A
:1024500010EB0A0041EB0B01BDE8F04D00F0FBB8BA
:10246000C10F80EAE0700844CA079623002100F0FB
:10247000C4B80EB5C10F80EAE0700844CA07002155
:1024800040F233438DE80E000A460B4600F0F2F8A6
:1024900003B000BD70B5C1F30A5201F0004500243D
:1024A000C1F3130140F2FF3341F480119A4201DA83
:1024B000002070BD40F233439A42A2F2334203DC63
:1024C000524200F06FF800E090402C43F1D04042BF
:1024D00070BD00F0004230F000400AD0C10D01F59F
:1024E0006071C0F3160042EA0151C208400711436F
:1024F000704700200146704730B50B46014600206A
:102500002022012409E021FA02F59D4205D303FAB5
:1025100002F5491B04FA02F52844151EA2F1010236
:10252000F1DC30BD2DE9F05F0546002092469B4668
:1025300088460646814640241BE0284641464746D9
:10254000224600F02FF853465A46C01A914110D344
:1025500011461846224600F016F82D1A67EB0108BE
:102560004F4622460120002100F00DF817EB00092C
:102570004E41201EA4F10104DFDC484631462A46C4
:102580004346BDE8F09F202A04DB203A00FA02F11E
:10259000002070479140C2F1200320FA03F3194351
:1025A00090407047202A04DB203A21FA02F00021F3
:1025B000704721FA02F3D040C2F120029140084353
:1025C00019467047202A06DBCB17203A41FA02F061
:1025D00043EAE07306E041FA02F3D040C2F1200280
:1025E00091400843194670470029A8BF7047401C16
:1025F000490008BF20F00100704710B4B0FA80FC19
:1026000000FA0CF050EA010404BF10BC704749B155
:10261000CCF1200421FA04F411FA0CF118BF0121C5
:1026200021430843A3EB0C01CB1D4FEA00614FEAA5
:10263000102042BF002010BC704700EBC350104474
:102640000029A4BF10BC7047401C490008BF20F0FF
:10265000010010BC704710B5141E73F1000408DAB5
:10266000401C41F1000192185B411A4301D120F056
:10267000010010BD2DE9F04D92469B4611B1B1FA13
:1026800081F202E0B0FA80F220329046FFF77BFF41
:1026900004460F4640EA0A0041EA0B0153465A46F7
:1026A000084313D0114653EA010019D0C8F1400283
:1026B0005046FFF777FF05460E46504659464246BC
:1026C000FFF761FF084305D0012004E020463946AA
:1026D000BDE8F08D0020054346EAE0762C43374301
:1026E0000A986305E40AA0EB08000022FD0A44EA08
:1026F00047540A3002D500200146E9E701051019C8
:102700006941DDE9084500196941BDE8F04DA2E7DE
:102710002DE9FE4F81EA030404F0004421F000415A
:1027200000944FF0000B23F0004350EA01045ED008
:1027300052EA03045BD0C3F30A54C1F30A552C4494
:10274000A4F2F3340194A0FB0254C1F3130141F449
:102750008011C3F3130343F4801301FB024400FB15
:10276000034E840A970A44EA815447EA8357A4FB3C
:10277000076802958D0A05FB07854FEA932C04FB39
:102780000C542705029D4FEA065847EA1637B5EB69
:1027900008056EEB070C870E920E47EA811742EA96
:1027A0008312A7FB0201B6EB0B0164EB00042B0DB7
:1027B00043EA0C335E1844EB1C50DA465146E7FB03
:1027C0000201C5F313044FEA0B3343EA14534FEAF3
:1027D0000432019C43EA0603A4F10C040294009C19
:1027E000CDE900B4FFF746FF03B0BDE8F08F00204D
:1027F0000146F9E7C1F30A52C1F3130140F2FF3376
:1028000041F480119A4202DA00200146704740F2FA
:1028100033439A42A2F2334202DC5242FFF7C2BE75
:10282000FFF7B1BE30B5041E71F1000404DB4FF0B8
:102830000044404264EB0101141E73F1000405DB07
:102840001C464FF00043524263EB0403994208BF19
:10285000904230BD064C074D06E0E06840F00103B1
:1028600094E8070098471034AC42F6D3FDF764FCB7
:102870004C3100086C3100080FB4054B10B503A9AA
:10288000044A029800F0CAF810BC5DF814FB00007E
:10289000C31C00084400002002E008C8121F08C141
:1028A000002AFAD170477047002001E001C1121FD1
:1028B000002AFBD1704700002DE9FF5FDDE902200F
:1028C000010DDDF838B0024318D044F61050A1F2E3
:1028D000FF3141430D140F98012820D0A5EB0B00C8
:1028E000401C5FEA000A4FF00004474EDFF81C91DD
:1028F000A046504616D5CAF1000728E00F980124DB
:1029000043A2012808D0002100980F9BC0E90021B4
:10291000C0E90243BDE8FF9F6FEA0B01F4E7CBF18A
:102920000000DEE7074612E0F80707D022463346EC
:1029300040464946FFF7ECFE80468946224633462C
:1029400010461946FFF7E4FE04460E467F10002F9E
:10295000EAD1DDE90201BAF1000F42464B4602DA44
:10296000FFF7D6FE01E0FFF70CFD04460E460022FD
:10297000284BFFF757FF03D84FF0FF30014607E021
:102980000022254B20463146FFF754FCFFF732FF6B
:10299000102409E0002C0ADB0A220023FFF7C2FD05
:1029A000019B30321A55641E50EA0102F2D1641CB8
:1029B000019AC4F1110314440F9A012A03D0012291
:1029C00008430DD10AE0084304D000204FF0110B5A
:1029D0000F9080E7A3EB0B056D1E0DE05B4504DD5A
:1029E0004FF0000205F1010504E003DA4FF00002A8
:1029F000A5F10105002AECD000980F99C0E9023139
:102A0000C0E9004586E70000000024400000F03FD8
:102A1000300000000000F0430000E03F2DE9FF4FD0
:102A200095B09B468946064600250FE2252877D1BA
:102A300000242746F84A0121059400E0044316F8D3
:102A4000013F203B01FA03F01042F7D130782A28E9
:102A500011D06FF02F033078A0F13002092A16D878
:102A6000059A44F0020402EB820203EB4202104496
:102A7000761C0590EFE759F8042B0592002A03DA3B
:102A8000504244F40054059044F00204761C30781F
:102A90002E2816D116F8010F44F004042A280DD070
:102AA0006FF02F023078A0F13003092B09D807EB23
:102AB000870302EB4303C718761CF3E759F8047B3E
:102AC000761C30786C280FD006DC4C2817D068288C
:102AD0000DD06A2814D104E0742810D07A280FD1C0
:102AE0000DE044F400140AE044F4801401E044F4DE
:102AF00040147278824202D104F58014761C761C50
:102B0000307866280BD013DC582877D009DC0028F1
:102B100075D04528F6D04628F4D047281AD19DE133
:102B200018E0632835D0642879D0652812D195E162
:102B3000702873D008DC6728F1D069286FD06E2820
:102B40000DD06F2806D1B5E073282CD0752875D02C
:102B5000782874D05A46179990476D1C75E1C4F3D4
:102B60000250022809D003280DD0D9F800100428FB
:102B70000DD00D6009F1040967E1D9F80010EA17DA
:102B8000C1E90052F6E7D9F800100D80F2E70D70A8
:102B9000F0E719F8041B8DF8001000208DF80100F3
:102BA000EA46012003E059F804AB4FF0FF3061071B
:102BB0004FF0000102D40DE008F101018846B9424E
:102BC0000FDA8045F8DB1AF808100029F4D108E084
:102BD00008F1010188468142FADB1AF80810002941
:102BE000F6D105985B46A0EB080721463846179AB0
:102BF00000F094FA284400EB080507E04DE029E1D5
:102C00000DE01AF8010B5A4617999047B8F10108E0
:102C1000F7D25B4621463846179A13E142E00A2272
:102C20000092C4F302524FF0000A022A08D059F869
:102C300004CB032A4FEAEC710AD00DE029E02AE028
:102C400009F1070121F00702F2E802C1914609E00B
:102C50000FFA8CFC4FEAEC71042A03D14FFA8CFC7A
:102C60004FEAEC71002907DA0A460021DCF1000C7A
:102C700061EB02012D2202E0220504D52B228DF802
:102C80000420012203E0E20701D02022F7E790466A
:102C900059E00A2102E010220DE010214FF0000A55
:102CA00000910BE010224FF0000A44F004040827C2
:102CB000009203E008224FF0000A0092C4F302528F
:102CC000022A05D059F804CB0021032A08D009E0D4
:102CD00009F1070121F00702F2E802C1914605E07F
:102CE0001FFA8CFC042A01D10CF0FF0C4FF00008F5
:102CF000220728D5702806D0009B83F0100353EAE2
:102D00000A0305D00EE040228DF80420012208E0DD
:102D10005CEA010206D030228DF804208DF805000F
:102D200002229046009B83F0080353EA0A030AD16B
:102D30005CEA010201D1620705D530228DF804203A
:102D40004FF001087F1E582804D034A003900EA82D
:102D500002900DE036A0F9E753466046009AFFF76F
:102D6000E1FB84460398825C0298401E0290027048
:102D70005CEA0100F0D1029806A9081A00F1200AC5
:102D8000600702D524F4803400E00127574502DDB6
:102D9000A7EB0A0000E0002000EB0A010090059874
:102DA0004144401A0590E00306D45B462146179A39
:102DB000059800F0B3F90544002706E001A85A463B
:102DC000C05D179990476D1C7F1C4745F6DBE003FB
:102DD0000CD55B462146179A059800F09FF90544EB
:102DE00004E030205A46179990476D1C0099481E00
:102DF00000900029F5DC08E0029802995A46007814
:102E0000491C0291179990476D1CBAF10001AAF173
:102E1000010AF1DC65E1000009280100303132339C
:102E20003435363738396162636465660000000006
:102E300030313233343536373839414243444546F0
:102E40000000000000F058F90544761C3078002896
:102E50007FF4ECAD19B02846BDE8F08F620700D4CE
:102E6000062709F1070222F0070CFCE80223E146DD
:102E700003F000485FEA080C02D00FF2702C0DE05E
:102E80005FEA045C02D50FF2682C07E05FEAC47CBD
:102E900002D00FF2602C01E0AFF2700C4FF0FF385F
:102EA00023F00043CDF850C065280CD006DC45283F
:102EB00009D046281DD047283DD13DE0662818D0CE
:102EC00067287ED138E00021112F01DB112000E0BE
:102ED000781CCDE9000106A90EA8FFF7EDFCDDE99D
:102EE0000F010E9A03910021009207F1010A04914B
:102EF0004DE04FF000400097CDE9011006A90EA863
:102F0000FFF7DAFCDDE90F0203920E9B1199002214
:102F1000DDF80CA00093049211B9791C00EB010AB2
:102F2000B7EB0A0004D4C0F1FF3007F1010A0490A6
:102F3000AAEB0700019044E0012F00DA01270021ED
:102F4000112F01DD112000E03846CDE9000106A96E
:102F50000EA8FFF7B1FCDDE90F010E9A03910021E5
:102F600004910092BA4621070CD40399514500DA26
:102F70008A46BAF1010F05DD009AAAF10101515C00
:102F8000302908D0B84202DA10F1040F06DA012124
:102F9000CDE9011015E0AAF10101E9E7002805DCFF
:102FA000049901440491AAEB000102E0411C51453F
:102FB00000DD8A460499401A401C01904FF0004001
:102FC0000290200704D40198504501DBCDF804801D
:102FD00000208DF84F0002980DF14F07B0F1004F1F
:102FE00025D02B200E9002984FF0020800280CDA12
:102FF000404202902D200E9007E00A210298FFF730
:103000007BFA3031029007F8011DB8F10001A8F1F8
:103010000108F2DC02980028EFD1791E0E980870A2
:10302000307800F0200040F0450007F8020D12A8AB
:10303000C01B00F107081498007800B1012000EBD4
:103040000A01019801EBE07105984144401A401EC5
:103050000590E00306D45B462146179A059800F0D8
:103060005DF805441498007818B15A4617999047AE
:103070006D1CE00324D55B462146179A059800F0A5
:103080004DF805441CE00498002807DBDDE9030146
:10309000884203DD0098405C179901E017993020C1
:1030A0005A469047049805F10105401C0490019888
:1030B000401E019004D12E205A46179990476D1C4E
:1030C000BAF10001AAF1010ADDDC05E017F8010BF5
:1030D0005A46179990476D1CB8F10001A8F10108F4
:1030E000F4DC5B462146179A0598ABE62D000000FC
:1030F0002B000000200000002DE9F04104460025CF
:103100001E461746880404D405E039462020B047FF
:103110006D1C641EF9D52846BDE8F0812DE9F0410B
:10312000044600251E469046C80301D5302700E01E
:103130002027880404D505E041463846B0476D1C79
:10314000641EF9D52846BDE8F08100006C31000806
:10315000000000204C00000098280008B83100084A
:103160004C00002064050000A828000800A24A04C2
:103170000000000000000000010203040607080927
:10318000000000000102030401020304060708090D
:10319000020406080000000000000000000000001B
:1031A00000000000000000005A00000000000000C5
:0831B000000000000000000017
:0400000508000131BD
:00000001FF
